:020000040000FA
:100000000C942A000C9426010C94C4000C94F90062
:100010000C9447000C9447000C9447000C94530137
:100020000C9447000C9447000C9447000C94470034
:100030000C9447000C9447000C9447000C94470024
:100040000C9447000C9447000C9447000C94470014
:100050000C94470011241FBECFE5D8E0DEBFCDBF12
:1000600010E0A0E6B0E0E6E5F4E002C005900D92F5
:10007000A236B107D9F720E0A2E6B0E001C01D9298
:10008000A836B207E1F70E9480010C9429020C9473
:10009000000093B7986493BF93B7916293BFBB9AE4
:1000A0008CBF08958F929F92AF92BF92CF92DF92B2
:1000B000EF92FF92CF93DF936B017C018CE3882E4C
:1000C000912CA12CB12CC701A50194010E9407021B
:1000D000D62FCA01B901A50194010E940702C62FBB
:1000E000C701B60120E13EE040E050E00E94070277
:1000F00080E28BBB3AE08D2F632F0E94FB0195BB02
:10010000E9EFF0E03197F1F700C0000090E19BBB10
:1001100085BB89EF90E00197F1F700C0000088E00F
:100120008BBB8C2F0E94FB0195BBE9EFF0E0319770
:10013000F1F700C0000094E09BBB85BB89EF90E025
:100140000197F1F700C0000082E08BBB822F0E9474
:10015000FB0195BBE9EFF0E03197F1F700C000003B
:1001600091E09BBB85BB89EF90E00197F1F700C060
:100170000000DF91CF91FF90EF90DF90CF90BF9084
:10018000AF909F908F9008951F920F920FB60F928D
:1001900011242F933F934F935F936F937F938F938C
:1001A0009F93AF93BF93EF93FF93839B09C080917D
:1001B00063008823B1F01092630080E00E94490040
:1001C000FF91EF91BF91AF919F918F917F916F912F
:1001D0005F914F913F912F910F900FBE0F901F9005
:1001E000189581E080936300109262008091600016
:1001F000E5CF1F920F920FB60F9211242F933F93CA
:100200004F935F936F937F938F939F93AF93BF931E
:10021000EF93FF9380916000893118F082538093AF
:100220006000809160000E944900FF91EF91BF91B2
:10023000AF919F918F917F916F915F914F913F917E
:100240002F910F900FBE0F901F9018951F920F9235
:100250000FB60F9211242F933F934F935F936F9399
:100260007F938F939F93AF93BF93EF93FF9380916F
:1002700060008F3F19F08E5C809360008091600079
:100280000E944900FF91EF91BF91AF919F918F9193
:100290007F916F915F914F913F912F910F900FBE82
:1002A0000F901F9018951F920F920FB60F92112466
:1002B0008F939F93AF93BF93809163008823B9F08E
:1002C00080916200811113C080916400909165005B
:1002D000A0916600B09167000196A11DB11D8093A9
:1002E000640090936500A0936600B0936700BF918F
:1002F000AF919F918F910F900FBE0F901F90189507
:1003000087B38F7887BB8FE084BB8FE38ABB8B98E2
:1003100087B3836087BBC09AC1988FB780688FBF4F
:100320008EB58B608EBD88E09DE39BBD8ABD89B78D
:10033000806189BF809160000E9449008BB7806E08
:100340008BBF85B7826085BF85B78C6085BF84B75A
:100350008F7B84BF1092630080E00E944900C1E05F
:10036000B59B11C0C093620080E00E94490060917B
:1003700064007091650080916600909167000E9412
:100380005200B599FECFB49B0CC0109262008091D0
:100390006300882321F0809160000E944900B49995
:1003A000FECFB69B0FC010926400109265001092B1
:1003B00066001092670060E070E0CB010E9452007E
:1003C000B699FECF80916300882371F0809162001E
:1003D00081110AC06091640070916500809166008F
:1003E000909167000E94520081EE94E00197F1F72E
:1003F00000C00000B5CF991B79E004C0991F961783
:1004000008F0961B881F7A95C9F780950895A1E298
:100410001A2EAA1BBB1BFD010DC0AA1FBB1FEE1F7E
:10042000FF1FA217B307E407F50720F0A21BB30BC9
:10043000E40BF50B661F771F881F991F1A9469F745
:1004400060957095809590959B01AC01BD01CF01A1
:080450000895F894FFCF32007B
:107E800011248FE598E09EBF8DBF24B614BE80E01C
:107E90007AD021FEDDC08EE076D0AFE7BFEF8099CB
:107EA000FECF9096809BFDCFB9B91197F1F782E094
:107EB0008BB988E18AB957D0C82F823559F467D079
:107EC000E0E8FEE7E058F109A89583E085D0309717
:107ED000C9F742C08D7F09F551D0D82F182F80E601
:107EE000E82EF12C40D0D7018D937D011150D1F7B0
:107EF0004ED0C1110EC0A0E6B0E0E199FECFFFBBAD
:107F0000EEBB8D918DBBE29AE19A3196D150A9F7E3
:107F100023C0A0E6B0E045D01FC0C33041F42ED04E
:107F2000C82F35D085911BD0C150E1F715C0C130A5
:107F300071F424D0C82F2BD0E199FECFFFBBEEBB4C
:107F4000E09A8DB30CD03196C150B1F705C0C13560
:107F500011F488E018D01BD08AE301D0ACCF5D9B30
:107F6000FECF8CB90895C09AB89A8BB187FFFDCF28
:107F700084FD10C0A8958CB1C0980895F4DFE82F57
:107F8000F2DFF82FF0CF98E191BD81BD0895EBDFCE
:107F9000803219F088E0F7DFFFCF80EAE0CFFB0105
:107FA000DC0160E86A0F9F01E0388EE7F807C8F44B
:107FB00083E012D0309629F48FE38D938FEC8C936D
:107FC000119781E00D901D9007D03296A613FACF3D
:107FD000F90185E001D081E187BFE89507B600FC93
:067FE000FDCF11240895FD
:067FFA000314D0CFE73FA5
:00000001FF
